{
  "contractName": "RegistryContract",
  "abi": [
    {
      "constant": true,
      "inputs": [
        {
          "name": "",
          "type": "uint256"
        }
      ],
      "name": "registry",
      "outputs": [
        {
          "name": "",
          "type": "bytes32"
        }
      ],
      "payable": false,
      "stateMutability": "view",
      "type": "function"
    },
    {
      "constant": true,
      "inputs": [
        {
          "name": "",
          "type": "bytes32"
        }
      ],
      "name": "dids",
      "outputs": [
        {
          "name": "",
          "type": "bytes32"
        }
      ],
      "payable": false,
      "stateMutability": "view",
      "type": "function"
    },
    {
      "constant": true,
      "inputs": [],
      "name": "validationContractAddress",
      "outputs": [
        {
          "name": "",
          "type": "address"
        }
      ],
      "payable": false,
      "stateMutability": "view",
      "type": "function"
    },
    {
      "inputs": [],
      "payable": false,
      "stateMutability": "nonpayable",
      "type": "constructor"
    },
    {
      "anonymous": false,
      "inputs": [
        {
          "indexed": false,
          "name": "newValidationContractAddress",
          "type": "address"
        }
      ],
      "name": "ValidationContractAddressUpdated",
      "type": "event"
    },
    {
      "constant": false,
      "inputs": [
        {
          "name": "_deviceDID",
          "type": "bytes32"
        },
        {
          "name": "_physicalID",
          "type": "uint256"
        },
        {
          "name": "_aktDID",
          "type": "bytes32"
        }
      ],
      "name": "registerDevice",
      "outputs": [
        {
          "name": "",
          "type": "bytes32"
        }
      ],
      "payable": false,
      "stateMutability": "nonpayable",
      "type": "function"
    },
    {
      "constant": true,
      "inputs": [
        {
          "name": "_physicalID",
          "type": "uint256"
        }
      ],
      "name": "getDIDbyPhysicalID",
      "outputs": [
        {
          "name": "",
          "type": "bytes32"
        }
      ],
      "payable": false,
      "stateMutability": "view",
      "type": "function"
    },
    {
      "constant": true,
      "inputs": [],
      "name": "getValidationContractAddress",
      "outputs": [
        {
          "name": "",
          "type": "address"
        }
      ],
      "payable": false,
      "stateMutability": "view",
      "type": "function"
    },
    {
      "constant": false,
      "inputs": [
        {
          "name": "newAddress",
          "type": "address"
        }
      ],
      "name": "setValidationContractAddress",
      "outputs": [],
      "payable": false,
      "stateMutability": "nonpayable",
      "type": "function"
    }
  ],
  "bytecode": "0x608060405234801561001057600080fd5b50336000806101000a81548173ffffffffffffffffffffffffffffffffffffffff021916908373ffffffffffffffffffffffffffffffffffffffff16021790555061096e806100606000396000f300608060405260043610610083576000357c0100000000000000000000000000000000000000000000000000000000900463ffffffff168063116d88b3146100885780635893253c146100cb57806370d63283146101145780637e00c7b014610179578063908dd39d146101c6578063d5a45f351461021d578063e6be6d8a14610266575b600080fd5b34801561009457600080fd5b506100c9600480360381019080803573ffffffffffffffffffffffffffffffffffffffff1690602001909291905050506102bd565b005b3480156100d757600080fd5b506100f6600480360381019080803590602001909291905050506104db565b60405180826000191660001916815260200191505060405180910390f35b34801561012057600080fd5b5061015b60048036038101908080356000191690602001909291908035906020019092919080356000191690602001909291905050506104f3565b60405180826000191660001916815260200191505060405180910390f35b34801561018557600080fd5b506101a8600480360381019080803560001916906020019092919050505061069b565b60405180826000191660001916815260200191505060405180910390f35b3480156101d257600080fd5b506101db6106b3565b604051808273ffffffffffffffffffffffffffffffffffffffff1673ffffffffffffffffffffffffffffffffffffffff16815260200191505060405180910390f35b34801561022957600080fd5b50610248600480360381019080803590602001909291905050506106dd565b60405180826000191660001916815260200191505060405180910390f35b34801561027257600080fd5b5061027b61078c565b604051808273ffffffffffffffffffffffffffffffffffffffff1673ffffffffffffffffffffffffffffffffffffffff16815260200191505060405180910390f35b6000809054906101000a900473ffffffffffffffffffffffffffffffffffffffff1673ffffffffffffffffffffffffffffffffffffffff163373ffffffffffffffffffffffffffffffffffffffff161415156103a7576040517f08c379a00000000000000000000000000000000000000000000000000000000081526004018080602001828103825260258152602001807f53656e64657220646f6573206e6f7420657175616c20636f6e7472616374206f81526020017f776e65722e00000000000000000000000000000000000000000000000000000081525060400191505060405180910390fd5b600073ffffffffffffffffffffffffffffffffffffffff16600160009054906101000a900473ffffffffffffffffffffffffffffffffffffffff1673ffffffffffffffffffffffffffffffffffffffff1614156104445780600160006101000a81548173ffffffffffffffffffffffffffffffffffffffff021916908373ffffffffffffffffffffffffffffffffffffffff1602179055506104d8565b6040517f08c379a00000000000000000000000000000000000000000000000000000000081526004018080602001828103825260368152602001807f56616c69646174696f6e20636f6e747261637420616464726573732063616e2081526020017f6f6e6c792062652073657420696e697469616c6c792e0000000000000000000081525060400191505060405180910390fd5b50565b60026020528060005260406000206000915090505481565b600080600102600360008660001916600019168152602001908152602001600020546000191614151561058e576040517f08c379a00000000000000000000000000000000000000000000000000000000081526004018080602001828103825260188152602001807f546869732044494420616c72656164792065786973747321000000000000000081525060200191505060405180910390fd5b6000600102600260008581526020019081526020016000205460001916141515610646576040517f08c379a00000000000000000000000000000000000000000000000000000000081526004018080602001828103825260348152602001807f54686572657320616c726561647920612044494420726567697374657265642081526020017f666f72207468697320707968736963616c49642100000000000000000000000081525060400191505060405180910390fd5b61065083836107b2565b50836002600085815260200190815260200160002081600019169055508360036000866000191660001916815260200190815260200160002081600019169055508390509392505050565b60036020528060005260406000206000915090505481565b6000600160009054906101000a900473ffffffffffffffffffffffffffffffffffffffff16905090565b60008060010260026000848152602001908152602001600020546000191614151515610771576040517f08c379a000000000000000000000000000000000000000000000000000000000815260040180806020018281038252601a8152602001807f5468697320444944206973206e6f74207265676973746572656400000000000081525060200191505060405180910390fd5b60026000838152602001908152602001600020549050919050565b600160009054906101000a900473ffffffffffffffffffffffffffffffffffffffff1681565b6000806000600160009054906101000a900473ffffffffffffffffffffffffffffffffffffffff1691508173ffffffffffffffffffffffffffffffffffffffff16639350333785876040518363ffffffff167c010000000000000000000000000000000000000000000000000000000002815260040180836000191660001916815260200182815260200192505050602060405180830381600087803b15801561085b57600080fd5b505af115801561086f573d6000803e3d6000fd5b505050506040513d602081101561088557600080fd5b810190808051906020019092919050505090506001151581151514151561093a576040517f08c379a000000000000000000000000000000000000000000000000000000000815260040180806020018281038252602f8152602001807f54686973205f706879736963616c4944206973206e6f7420656e61626c65642081526020017f666f72207265676973746572696e67000000000000000000000000000000000081525060400191505060405180910390fd5b5050929150505600a165627a7a72305820cacfc3a6e0a6b58432199ffb94b1fe9f6f27ba986a555a6ab1b6c16efb459c320029",
  "source": "//SPDX-License-Identifier: MIT\npragma solidity >=0.4.22 < 0.7.0;\n\nimport \"./ValidationContract.sol\";\n\ncontract RegistryContract {\n    event ValidationContractAddressUpdated(\n        address newValidationContractAddress\n    );\n\n    address owner;\n    address public validationContractAddress;\n\n    constructor() public {\n        owner = msg.sender;\n    }\n\n    modifier onlyOwner() {\n        require(msg.sender == owner, \"Sender does not equal contract owner.\");\n        _;\n    }\n\n    mapping(uint256 => bytes32) public registry;\n    mapping(bytes32 => bytes32) public dids;\n\n    function registerDevice(\n        bytes32 _deviceDID,\n        uint256 _physicalID,\n        bytes32 _aktDID\n    ) public returns (bytes32) {\n        require(dids[_deviceDID] == 0, \"This DID already exists!\");\n        require(\n            registry[_physicalID] == 0,\n            \"Theres already a DID registered for this pyhsicalId!\"\n        );\n\n        checkValidity(_physicalID, _aktDID);\n\n        registry[_physicalID] = _deviceDID;\n        dids[_deviceDID] = _deviceDID;\n\n    return _deviceDID;\n    }\n\n    function getDIDbyPhysicalID(uint256 _physicalID) public view returns (bytes32)\n    {\n        require(registry[_physicalID] != 0, \"This DID is not registered\");\n        return registry[_physicalID];\n    }\n\n    function getValidationContractAddress() public view returns (address){\n        return validationContractAddress;\n    }\n\n    function checkValidity(uint256 _physicalID, bytes32 _aktDID)\n        internal\n        view\n        returns (bool)\n    {\n        ValidationContract v = ValidationContract(validationContractAddress);\n\n        bool enabledDeviceAktDid = v.isAllowed(_aktDID, _physicalID);\n\n        require(\n            enabledDeviceAktDid == true,\n            \"This _physicalID is not enabled for registering\"\n        );\n    }\n    \n        /**\n     * Initially set contract address\n     */\n    function setValidationContractAddress(address newAddress) public onlyOwner {\n        if (validationContractAddress == address(0)) {\n            validationContractAddress = newAddress;\n        } else {\n            revert(\"Validation contract address can only be set initially.\");\n        }\n    }\n}\n",
  "sourcePath": "/Users/julian/Desktop/GitProjects/did-registry/contracts/RegistryContract.sol",
  "compiler": {
    "name": "solc",
    "version": "0.4.22+commit.4cb486ee.Emscripten.clang"
  },
  "schemaVersion": "3.2.3",
  "updatedAt": "2020-07-31T16:19:24.344Z",
  "networkType": "ethereum",
  "devdoc": {
    "methods": {}
  },
  "userdoc": {
    "methods": {
      "setValidationContractAddress(address)": {
        "notice": "Initially set contract address"
      }
    }
  }
}