{
  "contractName": "RegistryContract",
  "abi": [
    {
      "constant": true,
      "inputs": [
        {
          "name": "",
          "type": "bytes32"
        }
      ],
      "name": "dids",
      "outputs": [
        {
          "name": "",
          "type": "bytes32"
        }
      ],
      "payable": false,
      "stateMutability": "view",
      "type": "function"
    },
    {
      "constant": true,
      "inputs": [
        {
          "name": "",
          "type": "bytes32"
        }
      ],
      "name": "registry",
      "outputs": [
        {
          "name": "",
          "type": "bytes32"
        }
      ],
      "payable": false,
      "stateMutability": "view",
      "type": "function"
    },
    {
      "constant": true,
      "inputs": [],
      "name": "validationContractAddress",
      "outputs": [
        {
          "name": "",
          "type": "address"
        }
      ],
      "payable": false,
      "stateMutability": "view",
      "type": "function"
    },
    {
      "inputs": [],
      "payable": false,
      "stateMutability": "nonpayable",
      "type": "constructor"
    },
    {
      "anonymous": false,
      "inputs": [
        {
          "indexed": false,
          "name": "newValidationContractAddress",
          "type": "address"
        }
      ],
      "name": "ValidationContractAddressUpdated",
      "type": "event"
    },
    {
      "constant": false,
      "inputs": [
        {
          "name": "_deviceDID",
          "type": "bytes32"
        },
        {
          "name": "_physicalID",
          "type": "bytes32"
        },
        {
          "name": "_aktDID",
          "type": "bytes32"
        }
      ],
      "name": "registerDevice",
      "outputs": [
        {
          "name": "",
          "type": "bytes32"
        }
      ],
      "payable": false,
      "stateMutability": "nonpayable",
      "type": "function"
    },
    {
      "constant": true,
      "inputs": [
        {
          "name": "_physicalID",
          "type": "bytes32"
        }
      ],
      "name": "getDIDbyPhysicalID",
      "outputs": [
        {
          "name": "",
          "type": "bytes32"
        }
      ],
      "payable": false,
      "stateMutability": "view",
      "type": "function"
    },
    {
      "constant": true,
      "inputs": [],
      "name": "getValidationContractAddress",
      "outputs": [
        {
          "name": "",
          "type": "address"
        }
      ],
      "payable": false,
      "stateMutability": "view",
      "type": "function"
    },
    {
      "constant": false,
      "inputs": [
        {
          "name": "_newAddress",
          "type": "address"
        }
      ],
      "name": "setValidationContractAddress",
      "outputs": [],
      "payable": false,
      "stateMutability": "nonpayable",
      "type": "function"
    }
  ],
  "bytecode": "0x608060405234801561001057600080fd5b50336000806101000a81548173ffffffffffffffffffffffffffffffffffffffff021916908373ffffffffffffffffffffffffffffffffffffffff1602179055506109a2806100606000396000f300608060405260043610610083576000357c0100000000000000000000000000000000000000000000000000000000900463ffffffff168063116d88b3146100885780637900438b146100cb5780637e00c7b0146101345780637ef5029814610181578063908dd39d146101ce578063c46bae5214610225578063e6be6d8a14610272575b600080fd5b34801561009457600080fd5b506100c9600480360381019080803573ffffffffffffffffffffffffffffffffffffffff1690602001909291905050506102c9565b005b3480156100d757600080fd5b506101166004803603810190808035600019169060200190929190803560001916906020019092919080356000191690602001909291905050506104e7565b60405180826000191660001916815260200191505060405180910390f35b34801561014057600080fd5b50610163600480360381019080803560001916906020019092919050505061069f565b60405180826000191660001916815260200191505060405180910390f35b34801561018d57600080fd5b506101b060048036038101908080356000191690602001909291905050506106b7565b60405180826000191660001916815260200191505060405180910390f35b3480156101da57600080fd5b506101e36106cf565b604051808273ffffffffffffffffffffffffffffffffffffffff1673ffffffffffffffffffffffffffffffffffffffff16815260200191505060405180910390f35b34801561023157600080fd5b5061025460048036038101908080356000191690602001909291905050506106f9565b60405180826000191660001916815260200191505060405180910390f35b34801561027e57600080fd5b506102876107b8565b604051808273ffffffffffffffffffffffffffffffffffffffff1673ffffffffffffffffffffffffffffffffffffffff16815260200191505060405180910390f35b6000809054906101000a900473ffffffffffffffffffffffffffffffffffffffff1673ffffffffffffffffffffffffffffffffffffffff163373ffffffffffffffffffffffffffffffffffffffff161415156103b3576040517f08c379a00000000000000000000000000000000000000000000000000000000081526004018080602001828103825260258152602001807f53656e64657220646f6573206e6f7420657175616c20636f6e7472616374206f81526020017f776e65722e00000000000000000000000000000000000000000000000000000081525060400191505060405180910390fd5b600073ffffffffffffffffffffffffffffffffffffffff16600160009054906101000a900473ffffffffffffffffffffffffffffffffffffffff1673ffffffffffffffffffffffffffffffffffffffff1614156104505780600160006101000a81548173ffffffffffffffffffffffffffffffffffffffff021916908373ffffffffffffffffffffffffffffffffffffffff1602179055506104e4565b6040517f08c379a00000000000000000000000000000000000000000000000000000000081526004018080602001828103825260368152602001807f56616c69646174696f6e20636f6e747261637420616464726573732063616e2081526020017f6f6e6c792062652073657420696e697469616c6c792e0000000000000000000081525060400191505060405180910390fd5b50565b6000806001026003600086600019166000191681526020019081526020016000205460001916141515610582576040517f08c379a00000000000000000000000000000000000000000000000000000000081526004018080602001828103825260188152602001807f546869732044494420616c72656164792065786973747321000000000000000081525060200191505060405180910390fd5b60006001026002600085600019166000191681526020019081526020016000205460001916141515610642576040517f08c379a00000000000000000000000000000000000000000000000000000000081526004018080602001828103825260348152602001807f54686572657320616c726561647920612044494420726567697374657265642081526020017f666f72207468697320707968736963616c49642100000000000000000000000081525060400191505060405180910390fd5b61064c83836107de565b508360026000856000191660001916815260200190815260200160002081600019169055508360036000866000191660001916815260200190815260200160002081600019169055508390509392505050565b60036020528060005260406000206000915090505481565b60026020528060005260406000206000915090505481565b6000600160009054906101000a900473ffffffffffffffffffffffffffffffffffffffff16905090565b600080600102600260008460001916600019168152602001908152602001600020546000191614151515610795576040517f08c379a000000000000000000000000000000000000000000000000000000000815260040180806020018281038252601a8152602001807f5468697320444944206973206e6f74207265676973746572656400000000000081525060200191505060405180910390fd5b600260008360001916600019168152602001908152602001600020549050919050565b600160009054906101000a900473ffffffffffffffffffffffffffffffffffffffff1681565b6000806000600160009054906101000a900473ffffffffffffffffffffffffffffffffffffffff1691508173ffffffffffffffffffffffffffffffffffffffff166308d61aa585876040518363ffffffff167c0100000000000000000000000000000000000000000000000000000000028152600401808360001916600019168152602001826000191660001916815260200192505050602060405180830381600087803b15801561088f57600080fd5b505af11580156108a3573d6000803e3d6000fd5b505050506040513d60208110156108b957600080fd5b810190808051906020019092919050505090506001151581151514151561096e576040517f08c379a000000000000000000000000000000000000000000000000000000000815260040180806020018281038252602f8152602001807f54686973205f706879736963616c4944206973206e6f7420656e61626c65642081526020017f666f72207265676973746572696e67000000000000000000000000000000000081525060400191505060405180910390fd5b5050929150505600a165627a7a723058206e2d47c9d2658768248178cb923ae5bda1e0b57b1a6d33fa8fbd00627bd2c5100029",
  "source": "//SPDX-License-Identifier: MIT\npragma solidity >=0.4.22 <0.7.0;\n\nimport \"./ValidationContract.sol\";\n\n/// @title A Registration for Device DIDs\n/// @author Julian Voelkel\n/// @notice You can use this contract to register DIDs for Devices if they are enabled\ncontract RegistryContract {\n    event ValidationContractAddressUpdated(\n        address newValidationContractAddress\n    );\n\n    address owner;\n    address public validationContractAddress;\n\n    constructor() public {\n        owner = msg.sender;\n    }\n\n    modifier onlyOwner() {\n        require(msg.sender == owner, \"Sender does not equal contract owner.\");\n        _;\n    }\n\n    mapping(bytes32 => bytes32) public registry;\n    mapping(bytes32 => bytes32) public dids;\n\n    /// @notice A function to register the DID\n    /// @param _deviceDID The devices DID to be registered\n    /// @param _physicalID The devices according physicalID\n    /// @param _aktDID The DID of the used Activation Device\n    /// @return The registered DID\n    function registerDevice(\n        bytes32 _deviceDID,\n        bytes32 _physicalID,\n        bytes32 _aktDID\n    ) public returns (bytes32) {\n        require(dids[_deviceDID] == 0, \"This DID already exists!\");\n        require(\n            registry[_physicalID] == 0,\n            \"Theres already a DID registered for this pyhsicalId!\"\n        );\n\n        checkValidity(_physicalID, _aktDID);\n\n        registry[_physicalID] = _deviceDID;\n        dids[_deviceDID] = _deviceDID;\n\n        return _deviceDID;\n    }\n\n    /// @notice A function to return a DID by physicalID\n    /// @param _physicalID The physicalID of the Device\n    /// @return The devices DID\n    function getDIDbyPhysicalID(bytes32 _physicalID)\n        public\n        view\n        returns (bytes32)\n    {\n        require(registry[_physicalID] != 0, \"This DID is not registered\");\n        return registry[_physicalID];\n    }\n\n    /// @notice A function to return the set validation contract address\n    /// @return The address of the validation contract\n    function getValidationContractAddress() public view returns (address) {\n        return validationContractAddress;\n    }\n\n    /// @notice A function to determine if the registration is valid\n    /// @param _physicalID The physicalID of the Device\n    /// @param _aktDID The DID of the used Activation Device\n    /// @return If registration is valid or not\n    function checkValidity(bytes32 _physicalID, bytes32 _aktDID)\n        internal\n        view\n        returns (bool)\n    {\n        ValidationContract v = ValidationContract(validationContractAddress);\n\n        bool enabledDeviceAktDid = v.isAllowed(_aktDID, _physicalID);\n\n        require(\n            enabledDeviceAktDid == true,\n            \"This _physicalID is not enabled for registering\"\n        );\n    }\n\n    /// @notice Sets the address of the validation contract\n    /// @param _newAddress The address of the validation contract\n    function setValidationContractAddress(address _newAddress)\n        public\n        onlyOwner\n    {\n        if (validationContractAddress == address(0)) {\n            validationContractAddress = _newAddress;\n        } else {\n            revert(\"Validation contract address can only be set initially.\");\n        }\n    }\n}\n",
  "sourcePath": "/did-registry/contracts/RegistryContract.sol",
  "compiler": {
    "name": "solc",
    "version": "0.4.22+commit.4cb486ee.Emscripten.clang"
  },
  "schemaVersion": "3.2.2",
  "updatedAt": "2020-08-12T14:02:00.558Z",
  "networkType": "ethereum",
  "devdoc": {
    "author": "Julian Voelkel",
    "methods": {
      "getDIDbyPhysicalID(bytes32)": {
        "params": {
          "_physicalID": "The physicalID of the Device"
        },
        "return": "The devices DID"
      },
      "getValidationContractAddress()": {
        "return": "The address of the validation contract"
      },
      "registerDevice(bytes32,bytes32,bytes32)": {
        "params": {
          "_aktDID": "The DID of the used Activation Device",
          "_deviceDID": "The devices DID to be registered",
          "_physicalID": "The devices according physicalID"
        },
        "return": "The registered DID"
      },
      "setValidationContractAddress(address)": {
        "params": {
          "_newAddress": "The address of the validation contract"
        }
      }
    },
    "title": "A Registration for Device DIDs"
  },
  "userdoc": {
    "methods": {
      "getDIDbyPhysicalID(bytes32)": {
        "notice": "A function to return a DID by physicalID"
      },
      "getValidationContractAddress()": {
        "notice": "A function to return the set validation contract address"
      },
      "registerDevice(bytes32,bytes32,bytes32)": {
        "notice": "A function to register the DID"
      },
      "setValidationContractAddress(address)": {
        "notice": "Sets the address of the validation contract"
      }
    }
  }
}