{
  "contractName": "RegistryContract",
  "abi": [
    {
      "constant": true,
      "inputs": [
        {
          "name": "",
          "type": "bytes32"
        }
      ],
      "name": "dids",
      "outputs": [
        {
          "name": "",
          "type": "bool"
        }
      ],
      "payable": false,
      "stateMutability": "view",
      "type": "function"
    },
    {
      "constant": true,
      "inputs": [
        {
          "name": "",
          "type": "bytes32"
        }
      ],
      "name": "registry",
      "outputs": [
        {
          "name": "",
          "type": "bytes32"
        }
      ],
      "payable": false,
      "stateMutability": "view",
      "type": "function"
    },
    {
      "constant": true,
      "inputs": [],
      "name": "validationContractAddress",
      "outputs": [
        {
          "name": "",
          "type": "address"
        }
      ],
      "payable": false,
      "stateMutability": "view",
      "type": "function"
    },
    {
      "inputs": [
        {
          "name": "_validationContractAddress",
          "type": "address"
        }
      ],
      "payable": false,
      "stateMutability": "nonpayable",
      "type": "constructor"
    },
    {
      "anonymous": false,
      "inputs": [
        {
          "indexed": false,
          "name": "newValidationContractAddress",
          "type": "address"
        }
      ],
      "name": "ValidationContractAddressUpdated",
      "type": "event"
    },
    {
      "constant": false,
      "inputs": [
        {
          "name": "_deviceDID",
          "type": "bytes32"
        },
        {
          "name": "_physicalID",
          "type": "bytes32"
        },
        {
          "name": "_aktDID",
          "type": "bytes32"
        },
        {
          "name": "_activationDevice",
          "type": "address"
        }
      ],
      "name": "registerDevice",
      "outputs": [
        {
          "name": "",
          "type": "bytes32"
        }
      ],
      "payable": false,
      "stateMutability": "nonpayable",
      "type": "function"
    },
    {
      "constant": true,
      "inputs": [
        {
          "name": "_physicalID",
          "type": "bytes32"
        }
      ],
      "name": "getDIDbyPhysicalID",
      "outputs": [
        {
          "name": "",
          "type": "bytes32"
        }
      ],
      "payable": false,
      "stateMutability": "view",
      "type": "function"
    },
    {
      "constant": true,
      "inputs": [],
      "name": "getValidationContractAddress",
      "outputs": [
        {
          "name": "",
          "type": "address"
        }
      ],
      "payable": false,
      "stateMutability": "view",
      "type": "function"
    }
  ],
  "bytecode": "0x608060405234801561001057600080fd5b5060405160208061090583398101806040528101908080519060200190929190505050336000806101000a81548173ffffffffffffffffffffffffffffffffffffffff021916908373ffffffffffffffffffffffffffffffffffffffff16021790555080600260006101000a81548173ffffffffffffffffffffffffffffffffffffffff021916908373ffffffffffffffffffffffffffffffffffffffff16021790555050610841806100c46000396000f300608060405260043610610078576000357c0100000000000000000000000000000000000000000000000000000000900463ffffffff1680637e00c7b01461007d5780637ef50298146100c6578063908dd39d14610113578063c46bae521461016a578063d5ead4e8146101b7578063e6be6d8a14610240575b600080fd5b34801561008957600080fd5b506100ac6004803603810190808035600019169060200190929190505050610297565b604051808215151515815260200191505060405180910390f35b3480156100d257600080fd5b506100f560048036038101908080356000191690602001909291905050506102b7565b60405180826000191660001916815260200191505060405180910390f35b34801561011f57600080fd5b506101286102cf565b604051808273ffffffffffffffffffffffffffffffffffffffff1673ffffffffffffffffffffffffffffffffffffffff16815260200191505060405180910390f35b34801561017657600080fd5b5061019960048036038101908080356000191690602001909291905050506102f9565b60405180826000191660001916815260200191505060405180910390f35b3480156101c357600080fd5b50610222600480360381019080803560001916906020019092919080356000191690602001909291908035600019169060200190929190803573ffffffffffffffffffffffffffffffffffffffff1690602001909291905050506103b8565b60405180826000191660001916815260200191505060405180910390f35b34801561024c57600080fd5b50610255610657565b604051808273ffffffffffffffffffffffffffffffffffffffff1673ffffffffffffffffffffffffffffffffffffffff16815260200191505060405180910390f35b60046020528060005260406000206000915054906101000a900460ff1681565b60036020528060005260406000206000915090505481565b6000600260009054906101000a900473ffffffffffffffffffffffffffffffffffffffff16905090565b600080600102600360008460001916600019168152602001908152602001600020546000191614151515610395576040517f08c379a000000000000000000000000000000000000000000000000000000000815260040180806020018281038252601a8152602001807f5468697320444944206973206e6f74207265676973746572656400000000000081525060200191505060405180910390fd5b600360008360001916600019168152602001908152602001600020549050919050565b6000818073ffffffffffffffffffffffffffffffffffffffff163373ffffffffffffffffffffffffffffffffffffffff16141515610484576040517f08c379a00000000000000000000000000000000000000000000000000000000081526004018080602001828103825260288152602001807f53656e64657220646f6573206e6f7420657175616c2041637469766174696f6e81526020017f204465766963652e00000000000000000000000000000000000000000000000081525060400191505060405180910390fd5b6000151560046000886000191660001916815260200190815260200160002060009054906101000a900460ff161515141515610528576040517f08c379a00000000000000000000000000000000000000000000000000000000081526004018080602001828103825260188152602001807f546869732044494420616c72656164792065786973747321000000000000000081525060200191505060405180910390fd5b600060010260036000876000191660001916815260200190815260200160002054600019161415156105e8576040517f08c379a00000000000000000000000000000000000000000000000000000000081526004018080602001828103825260358152602001807f5468657265277320616c7265616479206120444944207265676973746572656481526020017f20666f72207468697320706879736963616c496421000000000000000000000081525060400191505060405180910390fd5b6105f2858561067d565b50856003600087600019166000191681526020019081526020016000208160001916905550600160046000886000191660001916815260200190815260200160002060006101000a81548160ff02191690831515021790555085915050949350505050565b600260009054906101000a900473ffffffffffffffffffffffffffffffffffffffff1681565b6000806000600260009054906101000a900473ffffffffffffffffffffffffffffffffffffffff1691508173ffffffffffffffffffffffffffffffffffffffff166308d61aa585876040518363ffffffff167c0100000000000000000000000000000000000000000000000000000000028152600401808360001916600019168152602001826000191660001916815260200192505050602060405180830381600087803b15801561072e57600080fd5b505af1158015610742573d6000803e3d6000fd5b505050506040513d602081101561075857600080fd5b810190808051906020019092919050505090506001151581151514151561080d576040517f08c379a000000000000000000000000000000000000000000000000000000000815260040180806020018281038252602f8152602001807f54686973205f706879736963616c4944206973206e6f7420656e61626c65642081526020017f666f72207265676973746572696e67000000000000000000000000000000000081525060400191505060405180910390fd5b5050929150505600a165627a7a723058209c0660b8fada0538b12e9d4181f38082af241fb0c58cbad63ffa41fecf22c9b70029",
  "source": "//SPDX-License-Identifier: MIT\npragma solidity >=0.4.22 <0.7.0;\n\nimport \"./ValidationContract.sol\";\n\n/// @title A Registration for Device DIDs\n/// @author Julian Voelkel\n/// @notice You can use this contract to register DIDs for Devices if they are enabled\ncontract RegistryContract {\n    event ValidationContractAddressUpdated(\n        address newValidationContractAddress\n    );\n\n    address owner;\n    address activationDevice;\n    address public validationContractAddress;\n\n    constructor(address _validationContractAddress) public {\n        owner = msg.sender;\n        validationContractAddress = _validationContractAddress;\n    }\n\n    modifier onlyOwner() {\n        require(msg.sender == owner, \"Sender does not equal contract owner.\");\n        _;\n    }\n\n    modifier onlyActivationDevice(address _activationDevice) {\n        require(msg.sender == _activationDevice, \"Sender does not equal Activation Device.\");\n        _;\n    }\n\n    mapping(bytes32 => bytes32) public registry;\n    mapping(bytes32 => bool) public dids;\n\n    /// @notice A function to register the DID\n    /// @param _deviceDID The device's DID to be registered\n    /// @param _physicalID The device's according physicalID\n    /// @param _aktDID The DID of the used Activation Device\n    /// @return The registered DID\n    function registerDevice(\n        bytes32 _deviceDID,\n        bytes32 _physicalID,\n        bytes32 _aktDID,\n        address _activationDevice\n    ) public onlyActivationDevice(_activationDevice) returns (bytes32) {\n\n        require(dids[_deviceDID] == false, \"This DID already exists!\");\n        require(\n            registry[_physicalID] == 0,\n            \"There's already a DID registered for this physicalId!\"\n        );\n\n        checkValidity(_physicalID, _aktDID);\n\n        registry[_physicalID] = _deviceDID;\n        dids[_deviceDID] = true;\n\n        return _deviceDID;\n    }\n\n    /// @notice A function to return a DID by physicalID\n    /// @param _physicalID The physicalID of the Device\n    /// @return The devices DID\n    function getDIDbyPhysicalID(bytes32 _physicalID)\n        public\n        view\n        returns (bytes32)\n    {\n        require(registry[_physicalID] != 0, \"This DID is not registered\");\n        return registry[_physicalID];\n    }\n\n    /// @notice A function to return the set validation contract address\n    /// @return The address of the validation contract\n    function getValidationContractAddress() public view returns (address) {\n        return validationContractAddress;\n    }\n\n    /// @notice A function to determine if the registration is valid\n    /// @param _physicalID The physicalID of the Device\n    /// @param _aktDID The DID of the used Activation Device\n    /// @return If registration is valid or not\n    function checkValidity(bytes32 _physicalID, bytes32 _aktDID)\n        internal\n        view\n        returns (bool)\n    {\n        ValidationContract v = ValidationContract(validationContractAddress);\n\n        bool enabledDeviceAktDid = v.isAllowed(_aktDID, _physicalID);\n\n        require(\n            enabledDeviceAktDid == true,\n            \"This _physicalID is not enabled for registering\"\n        );\n    }\n\n}\n",
  "sourcePath": "/did-registry/contracts/RegistryContract.sol",
  "compiler": {
    "name": "solc",
    "version": "0.4.22+commit.4cb486ee.Emscripten.clang"
  },
  "schemaVersion": "3.2.2",
  "updatedAt": "2020-08-18T12:14:12.289Z",
  "networkType": "ethereum",
  "devdoc": {
    "author": "Julian Voelkel",
    "methods": {
      "getDIDbyPhysicalID(bytes32)": {
        "params": {
          "_physicalID": "The physicalID of the Device"
        },
        "return": "The devices DID"
      },
      "getValidationContractAddress()": {
        "return": "The address of the validation contract"
      },
      "registerDevice(bytes32,bytes32,bytes32,address)": {
        "params": {
          "_aktDID": "The DID of the used Activation Device",
          "_deviceDID": "The device's DID to be registered",
          "_physicalID": "The device's according physicalID"
        },
        "return": "The registered DID"
      }
    },
    "title": "A Registration for Device DIDs"
  },
  "userdoc": {
    "methods": {
      "getDIDbyPhysicalID(bytes32)": {
        "notice": "A function to return a DID by physicalID"
      },
      "getValidationContractAddress()": {
        "notice": "A function to return the set validation contract address"
      },
      "registerDevice(bytes32,bytes32,bytes32,address)": {
        "notice": "A function to register the DID"
      }
    }
  }
}