{
  "contractName": "RegistryContract",
  "abi": [
    {
      "inputs": [
        {
          "internalType": "address",
          "name": "_validationContractAddress",
          "type": "address"
        }
      ],
      "payable": false,
      "stateMutability": "nonpayable",
      "type": "constructor"
    },
    {
      "anonymous": false,
      "inputs": [
        {
          "indexed": false,
          "internalType": "address",
          "name": "newValidationContractAddress",
          "type": "address"
        }
      ],
      "name": "ValidationContractAddressUpdated",
      "type": "event"
    },
    {
      "constant": true,
      "inputs": [
        {
          "internalType": "uint256",
          "name": "",
          "type": "uint256"
        }
      ],
      "name": "devices",
      "outputs": [
        {
          "internalType": "bytes32",
          "name": "did",
          "type": "bytes32"
        }
      ],
      "payable": false,
      "stateMutability": "view",
      "type": "function"
    },
    {
      "constant": true,
      "inputs": [
        {
          "internalType": "bytes32",
          "name": "",
          "type": "bytes32"
        }
      ],
      "name": "dids",
      "outputs": [
        {
          "internalType": "bytes32",
          "name": "did",
          "type": "bytes32"
        }
      ],
      "payable": false,
      "stateMutability": "view",
      "type": "function"
    },
    {
      "constant": true,
      "inputs": [],
      "name": "validationContractAddress",
      "outputs": [
        {
          "internalType": "address",
          "name": "",
          "type": "address"
        }
      ],
      "payable": false,
      "stateMutability": "view",
      "type": "function"
    },
    {
      "constant": false,
      "inputs": [
        {
          "internalType": "bytes32",
          "name": "_deviceDID",
          "type": "bytes32"
        },
        {
          "internalType": "uint256",
          "name": "_physicalId",
          "type": "uint256"
        },
        {
          "internalType": "bytes32",
          "name": "_aktDID",
          "type": "bytes32"
        }
      ],
      "name": "registerDevice",
      "outputs": [],
      "payable": false,
      "stateMutability": "nonpayable",
      "type": "function"
    },
    {
      "constant": true,
      "inputs": [
        {
          "internalType": "uint256",
          "name": "_physicalId",
          "type": "uint256"
        }
      ],
      "name": "getDevice",
      "outputs": [
        {
          "internalType": "bytes32",
          "name": "",
          "type": "bytes32"
        }
      ],
      "payable": false,
      "stateMutability": "view",
      "type": "function"
    }
  ],
  "bytecode": "0x608060405234801561001057600080fd5b506040516106123803806106128339818101604052602081101561003357600080fd5b8101908080519060200190929190505050336000806101000a81548173ffffffffffffffffffffffffffffffffffffffff021916908373ffffffffffffffffffffffffffffffffffffffff16021790555080600160006101000a81548173ffffffffffffffffffffffffffffffffffffffff021916908373ffffffffffffffffffffffffffffffffffffffff1602179055505061053d806100d56000396000f3fe608060405234801561001057600080fd5b50600436106100575760003560e01c806309f110b11461005c57806310ff8e311461009e57806370d63283146100e05780637e00c7b014610122578063e6be6d8a14610164575b600080fd5b6100886004803603602081101561007257600080fd5b81019080803590602001909291905050506101ae565b6040518082815260200191505060405180910390f35b6100ca600480360360208110156100b457600080fd5b81019080803590602001909291905050506101ce565b6040518082815260200191505060405180910390f35b610120600480360360608110156100f657600080fd5b810190808035906020019092919080359060200190929190803590602001909291905050506101ec565b005b61014e6004803603602081101561013857600080fd5b810190808035906020019092919050505061033d565b6040518082815260200191505060405180910390f35b61016c61035b565b604051808273ffffffffffffffffffffffffffffffffffffffff1673ffffffffffffffffffffffffffffffffffffffff16815260200191505060405180910390f35b600060026000838152602001908152602001600020600001549050919050565b60026020528060005260406000206000915090508060000154905081565b600060026000848152602001908152602001600020905060006003600086815260200190815260200160002090506000801b6003600087815260200190815260200160002060000154146102a8576040517f08c379a00000000000000000000000000000000000000000000000000000000081526004018080602001828103825260188152602001807f546869732044494420616c72656164792065786973747321000000000000000081525060200191505060405180910390fd5b6000801b600260008681526020019081526020016000206000015414610319576040517f08c379a00000000000000000000000000000000000000000000000000000000081526004018080602001828103825260348152602001806104d56034913960400191505060405180910390fd5b6103238484610381565b508482600001819055508481600001819055505050505050565b60036020528060005260406000206000915090508060000154905081565b600160009054906101000a900473ffffffffffffffffffffffffffffffffffffffff1681565b600080600160009054906101000a900473ffffffffffffffffffffffffffffffffffffffff16905060008173ffffffffffffffffffffffffffffffffffffffff1663355d3e3686866040518363ffffffff1660e01b8152600401808381526020018281526020019250505060206040518083038186803b15801561040457600080fd5b505afa158015610418573d6000803e3d6000fd5b505050506040513d602081101561042e57600080fd5b81019080805190602001909291905050509050600115158115151461049e576040517f08c379a000000000000000000000000000000000000000000000000000000000815260040180806020018281038252602e8152602001806104a7602e913960400191505060405180910390fd5b50509291505056fe5468697320706879736963616c4964206973206e6f7420656e61626c656420666f72207265676973746572696e6754686572657320616c7265616479206120444944207265676973746572656420666f72207468697320707968736963616c496421a265627a7a7231582012ce8ef56132166df7b784727b4415f40c4724b3171ce537f7518f8b8c27776064736f6c63430005100032",
  "source": "//SPDX-License-Identifier: MIT\npragma solidity >= 0.5.0 < 0.7.0;\n\nimport \"./ValidationContract.sol\";\n\ncontract RegistryContract {\n    \n    event ValidationContractAddressUpdated(address newValidationContractAddress);\n\n    address owner;\n    address public validationContractAddress;\n   \n  struct Device {\n    bytes32 did;\n  }\n\n  constructor(address _validationContractAddress) public {\n    owner = msg.sender;\n    validationContractAddress = _validationContractAddress;\n  }\n  \n      modifier onlyOwner() {\n        require(msg.sender == owner, \"Sender does not equal contract owner.\");\n        _;\n    }\n    \n        modifier onlyValidationContract() {\n        require (validationContractAddress == msg.sender, \"Sender address does not equal voting contract address.\");\n        _;\n    }\n\n      mapping(uint => Device) public devices;\n      mapping(bytes32 => Device) public dids;\n\n      function registerDevice(bytes32 _deviceDID, uint _physicalId, bytes32 _aktDID) public {\n        Device storage device = devices[_physicalId];\n        Device storage did = dids[_deviceDID];\n        \n        require(dids[_deviceDID].did == 0, \"This DID already exists!\");\n        require(devices[_physicalId].did == 0, \"Theres already a DID registered for this pyhsicalId!\");\n        \n        checkValidity(_physicalId, _aktDID);\n\n        device.did = _deviceDID;\n\n        did.did = _deviceDID;\n      }\n\n      function getDevice(uint _physicalId) view public returns(bytes32){\n       return devices[_physicalId].did;\n      }\n      \n      function checkValidity(uint _phyisicalId, bytes32 _aktDID) internal view returns(bool) {\n          \n          ValidationContract v = ValidationContract(validationContractAddress);\n          \n          bool enabledDeviceAktDid = v.isAllowed(_phyisicalId, _aktDID);\n          \n          require(enabledDeviceAktDid == true, \"This physicalId is not enabled for registering\");\n      }\n      \n}\n",
  "sourcePath": "/Users/julian/Desktop/GitProjects/did-registry/contracts/RegistryContract.sol",
  "compiler": {
    "name": "solc",
    "version": "0.5.16+commit.9c3226ce.Emscripten.clang"
  },
  "schemaVersion": "3.2.0",
  "updatedAt": "2020-07-23T14:35:13.259Z",
  "networkType": "ethereum",
  "devdoc": {
    "methods": {}
  },
  "userdoc": {
    "methods": {}
  }
}