{
  "contractName": "RegistryContract",
  "abi": [
    {
      "inputs": [
        {
          "internalType": "address",
          "name": "_validationContractAddress",
          "type": "address"
        }
      ],
      "payable": false,
      "stateMutability": "nonpayable",
      "type": "constructor"
    },
    {
      "anonymous": false,
      "inputs": [
        {
          "indexed": false,
          "internalType": "address",
          "name": "newValidationContractAddress",
          "type": "address"
        }
      ],
      "name": "ValidationContractAddressUpdated",
      "type": "event"
    },
    {
      "constant": true,
      "inputs": [
        {
          "internalType": "bytes32",
          "name": "",
          "type": "bytes32"
        }
      ],
      "name": "dids",
      "outputs": [
        {
          "internalType": "bytes32",
          "name": "",
          "type": "bytes32"
        }
      ],
      "payable": false,
      "stateMutability": "view",
      "type": "function"
    },
    {
      "constant": true,
      "inputs": [
        {
          "internalType": "uint256",
          "name": "",
          "type": "uint256"
        }
      ],
      "name": "registry",
      "outputs": [
        {
          "internalType": "bytes32",
          "name": "",
          "type": "bytes32"
        }
      ],
      "payable": false,
      "stateMutability": "view",
      "type": "function"
    },
    {
      "constant": true,
      "inputs": [],
      "name": "validationContractAddress",
      "outputs": [
        {
          "internalType": "address",
          "name": "",
          "type": "address"
        }
      ],
      "payable": false,
      "stateMutability": "view",
      "type": "function"
    },
    {
      "constant": false,
      "inputs": [
        {
          "internalType": "bytes32",
          "name": "_deviceDID",
          "type": "bytes32"
        },
        {
          "internalType": "uint256",
          "name": "_physicalID",
          "type": "uint256"
        },
        {
          "internalType": "bytes32",
          "name": "_aktDID",
          "type": "bytes32"
        }
      ],
      "name": "registerDevice",
      "outputs": [
        {
          "internalType": "bytes32",
          "name": "",
          "type": "bytes32"
        }
      ],
      "payable": false,
      "stateMutability": "nonpayable",
      "type": "function"
    },
    {
      "constant": true,
      "inputs": [
        {
          "internalType": "uint256",
          "name": "_physicalID",
          "type": "uint256"
        }
      ],
      "name": "getDIDbyPhysicalID",
      "outputs": [
        {
          "internalType": "bytes32",
          "name": "",
          "type": "bytes32"
        }
      ],
      "payable": false,
      "stateMutability": "view",
      "type": "function"
    },
    {
      "constant": true,
      "inputs": [],
      "name": "getValidationContractAddress",
      "outputs": [
        {
          "internalType": "address",
          "name": "",
          "type": "address"
        }
      ],
      "payable": false,
      "stateMutability": "view",
      "type": "function"
    }
  ],
  "bytecode": "0x608060405234801561001057600080fd5b506040516107123803806107128339818101604052602081101561003357600080fd5b8101908080519060200190929190505050336000806101000a81548173ffffffffffffffffffffffffffffffffffffffff021916908373ffffffffffffffffffffffffffffffffffffffff16021790555080600160006101000a81548173ffffffffffffffffffffffffffffffffffffffff021916908373ffffffffffffffffffffffffffffffffffffffff1602179055505061063d806100d56000396000f3fe608060405234801561001057600080fd5b50600436106100625760003560e01c80635893253c1461006757806370d63283146100a95780637e00c7b0146100ff578063908dd39d14610141578063d5a45f351461018b578063e6be6d8a146101cd575b600080fd5b6100936004803603602081101561007d57600080fd5b8101908080359060200190929190505050610217565b6040518082815260200191505060405180910390f35b6100e9600480360360608110156100bf57600080fd5b8101908080359060200190929190803590602001909291908035906020019092919050505061022f565b6040518082815260200191505060405180910390f35b61012b6004803603602081101561011557600080fd5b810190808035906020019092919050505061036f565b6040518082815260200191505060405180910390f35b610149610387565b604051808273ffffffffffffffffffffffffffffffffffffffff1673ffffffffffffffffffffffffffffffffffffffff16815260200191505060405180910390f35b6101b7600480360360208110156101a157600080fd5b81019080803590602001909291905050506103b1565b6040518082815260200191505060405180910390f35b6101d561045a565b604051808273ffffffffffffffffffffffffffffffffffffffff1673ffffffffffffffffffffffffffffffffffffffff16815260200191505060405180910390f35b60026020528060005260406000206000915090505481565b60008060001b6003600086815260200190815260200160002054146102bc576040517f08c379a00000000000000000000000000000000000000000000000000000000081526004018080602001828103825260188152602001807f546869732044494420616c72656164792065786973747321000000000000000081525060200191505060405180910390fd5b6000801b60026000858152602001908152602001600020541461032a576040517f08c379a00000000000000000000000000000000000000000000000000000000081526004018080602001828103825260348152602001806105d56034913960400191505060405180910390fd5b6103348383610480565b508360026000858152602001908152602001600020819055508360036000868152602001908152602001600020819055508390509392505050565b60036020528060005260406000206000915090505481565b6000600160009054906101000a900473ffffffffffffffffffffffffffffffffffffffff16905090565b60008060001b6002600084815260200190815260200160002054141561043f576040517f08c379a000000000000000000000000000000000000000000000000000000000815260040180806020018281038252601a8152602001807f5468697320444944206973206e6f74207265676973746572656400000000000081525060200191505060405180910390fd5b60026000838152602001908152602001600020549050919050565b600160009054906101000a900473ffffffffffffffffffffffffffffffffffffffff1681565b600080600160009054906101000a900473ffffffffffffffffffffffffffffffffffffffff16905060008173ffffffffffffffffffffffffffffffffffffffff1663355d3e3686866040518363ffffffff1660e01b8152600401808381526020018281526020019250505060206040518083038186803b15801561050357600080fd5b505afa158015610517573d6000803e3d6000fd5b505050506040513d602081101561052d57600080fd5b81019080805190602001909291905050509050600115158115151461059d576040517f08c379a000000000000000000000000000000000000000000000000000000000815260040180806020018281038252602f8152602001806105a6602f913960400191505060405180910390fd5b50509291505056fe54686973205f706879736963616c4944206973206e6f7420656e61626c656420666f72207265676973746572696e6754686572657320616c7265616479206120444944207265676973746572656420666f72207468697320707968736963616c496421a265627a7a723158204754e9f31f70387cb2092e40f60d2c8b316ef6bc67d36a4ad296a986e16da0dc64736f6c63430005100032",
  "source": "//SPDX-License-Identifier: MIT\npragma solidity >=0.5.0 <0.7.0;\n\nimport \"./ValidationContract.sol\";\n\ncontract RegistryContract {\n    event ValidationContractAddressUpdated(\n        address newValidationContractAddress\n    );\n\n    address owner;\n    address public validationContractAddress;\n\n    constructor(address _validationContractAddress) public {\n        owner = msg.sender;\n        validationContractAddress = _validationContractAddress;\n    }\n\n    modifier onlyOwner() {\n        require(msg.sender == owner, \"Sender does not equal contract owner.\");\n        _;\n    }\n\n    mapping(uint256 => bytes32) public registry;\n    mapping(bytes32 => bytes32) public dids;\n\n    function registerDevice(\n        bytes32 _deviceDID,\n        uint256 _physicalID,\n        bytes32 _aktDID\n    ) public returns (bytes32) {\n        require(dids[_deviceDID] == 0, \"This DID already exists!\");\n        require(\n            registry[_physicalID] == 0,\n            \"Theres already a DID registered for this pyhsicalId!\"\n        );\n\n        checkValidity(_physicalID, _aktDID);\n\n        registry[_physicalID] = _deviceDID;\n        dids[_deviceDID] = _deviceDID;\n\n    return _deviceDID;\n    }\n\n    function getDIDbyPhysicalID(uint256 _physicalID) public view returns (bytes32)\n    {\n        require(registry[_physicalID] != 0, \"This DID is not registered\");\n        return registry[_physicalID];\n    }\n\n    function getValidationContractAddress() public view returns (address){\n        return validationContractAddress;\n    }\n\n    function checkValidity(uint256 _physicalID, bytes32 _aktDID)\n        internal\n        view\n        returns (bool)\n    {\n        ValidationContract v = ValidationContract(validationContractAddress);\n\n        bool enabledDeviceAktDid = v.isAllowed(_physicalID, _aktDID);\n\n        require(\n            enabledDeviceAktDid == true,\n            \"This _physicalID is not enabled for registering\"\n        );\n    }\n}\n",
  "sourcePath": "/Users/julian/Desktop/GitProjects/did-registry/contracts/RegistryContract.sol",
  "compiler": {
    "name": "solc",
    "version": "0.5.16+commit.9c3226ce.Emscripten.clang"
  },
  "schemaVersion": "3.2.0",
  "updatedAt": "2020-07-24T13:45:56.787Z",
  "networkType": "ethereum",
  "devdoc": {
    "methods": {}
  },
  "userdoc": {
    "methods": {}
  }
}