{
  "contractName": "ValidationContract",
  "abi": [
    {
      "constant": true,
      "inputs": [
        {
          "name": "",
          "type": "bytes32"
        }
      ],
      "name": "pids",
      "outputs": [
        {
          "name": "",
          "type": "bool"
        }
      ],
      "payable": false,
      "stateMutability": "view",
      "type": "function"
    },
    {
      "inputs": [],
      "payable": false,
      "stateMutability": "nonpayable",
      "type": "constructor"
    },
    {
      "constant": false,
      "inputs": [
        {
          "name": "_aktDID",
          "type": "bytes32"
        },
        {
          "name": "_physicalID",
          "type": "bytes32"
        }
      ],
      "name": "setPhysicalID",
      "outputs": [],
      "payable": false,
      "stateMutability": "nonpayable",
      "type": "function"
    },
    {
      "constant": true,
      "inputs": [
        {
          "name": "_aktDID",
          "type": "bytes32"
        },
        {
          "name": "_physicalID",
          "type": "bytes32"
        }
      ],
      "name": "isAllowed",
      "outputs": [
        {
          "name": "",
          "type": "bool"
        }
      ],
      "payable": false,
      "stateMutability": "view",
      "type": "function"
    }
  ],
  "bytecode": "0x608060405234801561001057600080fd5b50336000806101000a81548173ffffffffffffffffffffffffffffffffffffffff021916908373ffffffffffffffffffffffffffffffffffffffff16021790555061056b806100606000396000f300608060405260043610610057576000357c0100000000000000000000000000000000000000000000000000000000900463ffffffff16806308d61aa51461005c5780635cb7ece0146100b3578063a51f8aac146100f2575b600080fd5b34801561006857600080fd5b506100996004803603810190808035600019169060200190929190803560001916906020019092919050505061013b565b604051808215151515815260200191505060405180910390f35b3480156100bf57600080fd5b506100f06004803603810190808035600019169060200190929190803560001916906020019092919050505061022a565b005b3480156100fe57600080fd5b50610121600480360381019080803560001916906020019092919050505061051f565b604051808215151515815260200191505060405180910390f35b6000600115156001600085600019166000191681526020019081526020016000206000846000191660001916815260200190815260200160002060009054906101000a900460ff161515141515610220576040517f08c379a00000000000000000000000000000000000000000000000000000000081526004018080602001828103825260358152602001807f546869732070687969736963616c496420686173206e6f74206265656e20656e81526020017f746572656420666f72207265676973746572696e67000000000000000000000081525060400191505060405180910390fd5b6001905092915050565b6000809054906101000a900473ffffffffffffffffffffffffffffffffffffffff1673ffffffffffffffffffffffffffffffffffffffff163373ffffffffffffffffffffffffffffffffffffffff16141515610314576040517f08c379a00000000000000000000000000000000000000000000000000000000081526004018080602001828103825260258152602001807f53656e64657220646f6573206e6f7420657175616c20636f6e7472616374206f81526020017f776e65722e00000000000000000000000000000000000000000000000000000081525060400191505060405180910390fd5b600015156001600084600019166000191681526020019081526020016000206000836000191660001916815260200190815260200160002060009054906101000a900460ff1615151415156103f7576040517f08c379a00000000000000000000000000000000000000000000000000000000081526004018080602001828103825260398152602001807f546869732070687969736963616c49642068617320616c72656164792062656581526020017f6e20656e746572656420666f72207265676973746572696e670000000000000081525060400191505060405180910390fd5b6000151560026000836000191660001916815260200190815260200160002060009054906101000a900460ff16151514151561049b576040517f08c379a00000000000000000000000000000000000000000000000000000000081526004018080602001828103825260188152602001807f546869732050494420616c72656164792065786973747321000000000000000081525060200191505060405180910390fd5b600180600084600019166000191681526020019081526020016000206000836000191660001916815260200190815260200160002060006101000a81548160ff021916908315150217905550600160026000836000191660001916815260200190815260200160002060006101000a81548160ff0219169083151502179055505050565b60026020528060005260406000206000915054906101000a900460ff16815600a165627a7a723058203dfc0fbdbc882255ebcd83a6dc9b2ea480234ce7621c63c1df236fd7addb67520029",
  "source": "//SPDX-License-Identifier: MIT\npragma solidity >=0.4.22 <0.7.0;\n\n/// @title A Validation for device DID registering\n/// @author Julian Voelkel\n/// @notice This contract is called bused to validate any DID registration\ncontract ValidationContract {\n    address owner;\n\n    constructor() public {\n        owner = msg.sender;\n    }\n\n    modifier onlyOwner() {\n        require(msg.sender == owner, \"Sender does not equal contract owner.\");\n        _;\n    }\n\n    mapping(bytes32 => mapping(bytes32 => bool)) internal enabled;\n    mapping(bytes32 => bool) public pids;\n\n    /// @notice A function to register physicalIDs\n    /// @param _aktDID The DID of the Activation Device to be allowed to register a Device DID for this physicalID\n    /// @param _physicalID The physicalID to be enabled for registering\n    function setPhysicalID(bytes32 _aktDID, bytes32 _physicalID)\n        public\n        onlyOwner\n    {\n        require(\n            enabled[_aktDID][_physicalID] == false,\n            \"This phyisicalId has already been entered for registering\"\n        );\n\n        require(pids[_physicalID] == false, \"This PID already exists!\");\n\n        enabled[_aktDID][_physicalID] = true;\n        pids[_physicalID] = true;\n    }\n\n    /// @notice A function to check if a physicalID is valid to be registered\n    /// @param _aktDID The DID of the Activation Device allowed to register a Device DID for this physicalID\n    /// @param _physicalID The physicalID of the device\n    function isAllowed(bytes32 _aktDID, bytes32 _physicalID)\n        public\n        view\n        returns (bool)\n    {\n        require(\n            enabled[_aktDID][_physicalID] == true,\n            \"This phyisicalId has not been entered for registering\"\n        );\n\n        return true;\n    }\n}\n",
  "sourcePath": "/did-registry/contracts/ValidationContract.sol",
  "compiler": {
    "name": "solc",
    "version": "0.4.22+commit.4cb486ee.Emscripten.clang"
  },
  "schemaVersion": "3.2.2",
  "updatedAt": "2020-08-18T12:14:12.316Z",
  "networkType": "ethereum",
  "devdoc": {
    "author": "Julian Voelkel",
    "methods": {
      "isAllowed(bytes32,bytes32)": {
        "params": {
          "_aktDID": "The DID of the Activation Device allowed to register a Device DID for this physicalID",
          "_physicalID": "The physicalID of the device"
        }
      },
      "setPhysicalID(bytes32,bytes32)": {
        "params": {
          "_aktDID": "The DID of the Activation Device to be allowed to register a Device DID for this physicalID",
          "_physicalID": "The physicalID to be enabled for registering"
        }
      }
    },
    "title": "A Validation for device DID registering"
  },
  "userdoc": {
    "methods": {
      "isAllowed(bytes32,bytes32)": {
        "notice": "A function to check if a physicalID is valid to be registered"
      },
      "setPhysicalID(bytes32,bytes32)": {
        "notice": "A function to register physicalIDs"
      }
    }
  }
}