{
  "contractName": "ValidationContract",
  "abi": [
    {
      "inputs": [],
      "payable": false,
      "stateMutability": "nonpayable",
      "type": "constructor"
    },
    {
      "constant": true,
      "inputs": [
        {
          "internalType": "uint256",
          "name": "",
          "type": "uint256"
        }
      ],
      "name": "devices",
      "outputs": [
        {
          "internalType": "uint256",
          "name": "physicalId",
          "type": "uint256"
        }
      ],
      "payable": false,
      "stateMutability": "view",
      "type": "function"
    },
    {
      "constant": false,
      "inputs": [
        {
          "internalType": "bytes32",
          "name": "_aktDID",
          "type": "bytes32"
        }
      ],
      "name": "setAktDID",
      "outputs": [],
      "payable": false,
      "stateMutability": "nonpayable",
      "type": "function"
    },
    {
      "constant": false,
      "inputs": [
        {
          "internalType": "uint256",
          "name": "_physicalId",
          "type": "uint256"
        }
      ],
      "name": "setPhysicalId",
      "outputs": [],
      "payable": false,
      "stateMutability": "nonpayable",
      "type": "function"
    },
    {
      "constant": true,
      "inputs": [
        {
          "internalType": "uint256",
          "name": "_physicalId",
          "type": "uint256"
        },
        {
          "internalType": "bytes32",
          "name": "_aktDID",
          "type": "bytes32"
        }
      ],
      "name": "isAllowed",
      "outputs": [
        {
          "internalType": "bool",
          "name": "",
          "type": "bool"
        }
      ],
      "payable": false,
      "stateMutability": "view",
      "type": "function"
    }
  ],
  "bytecode": "0x608060405234801561001057600080fd5b50336000806101000a81548173ffffffffffffffffffffffffffffffffffffffff021916908373ffffffffffffffffffffffffffffffffffffffff1602179055506105ae806100606000396000f3fe608060405234801561001057600080fd5b506004361061004c5760003560e01c806310ff8e31146100515780632988ae5f14610093578063355d3e36146100c1578063b97c8b4c14610111575b600080fd5b61007d6004803603602081101561006757600080fd5b810190808035906020019092919050505061013f565b6040518082815260200191505060405180910390f35b6100bf600480360360208110156100a957600080fd5b810190808035906020019092919050505061015d565b005b6100f7600480360360408110156100d757600080fd5b81019080803590602001909291908035906020019092919050505061026f565b604051808215151515815260200191505060405180910390f35b61013d6004803603602081101561012757600080fd5b8101908080359060200190929190505050610343565b005b60026020528060005260406000206000915090508060000154905081565b6000809054906101000a900473ffffffffffffffffffffffffffffffffffffffff1673ffffffffffffffffffffffffffffffffffffffff163373ffffffffffffffffffffffffffffffffffffffff1614610202576040517f08c379a00000000000000000000000000000000000000000000000000000000081526004018080602001828103825260258152602001806105206025913960400191505060405180910390fd5b6000801b600154141561021b578060018190555061026c565b6040517f08c379a00000000000000000000000000000000000000000000000000000000081526004018080602001828103825260368152602001806104ea6036913960400191505060405180910390fd5b50565b6000826002600085815260200190815260200160002060000154146102df576040517f08c379a00000000000000000000000000000000000000000000000000000000081526004018080602001828103825260358152602001806105456035913960400191505060405180910390fd5b8160015414610339576040517f08c379a000000000000000000000000000000000000000000000000000000000815260040180806020018281038252603581526020018061047c6035913960400191505060405180910390fd5b6001905092915050565b6000809054906101000a900473ffffffffffffffffffffffffffffffffffffffff1673ffffffffffffffffffffffffffffffffffffffff163373ffffffffffffffffffffffffffffffffffffffff16146103e8576040517f08c379a00000000000000000000000000000000000000000000000000000000081526004018080602001828103825260258152602001806105206025913960400191505060405180910390fd5b6000600260008381526020019081526020016000209050816002600084815260200190815260200160002060000154141561046e576040517f08c379a00000000000000000000000000000000000000000000000000000000081526004018080602001828103825260398152602001806104b16039913960400191505060405180910390fd5b818160000181905550505056fe546869732041637469766174696f6e20446576696365206973206e6f7420616c6c6f77656420746f20726567697374657220494473546869732070687969736963616c49642068617320616c7265616479206265656e20656e746572656420666f72207265676973746572696e6756616c69646174696f6e20636f6e747261637420616464726573732063616e206f6e6c792062652073657420696e697469616c6c792e53656e64657220646f6573206e6f7420657175616c20636f6e7472616374206f776e65722e546869732070687969736963616c496420686173206e6f74206265656e20656e746572656420666f72207265676973746572696e67a265627a7a72315820496c7d6dde8c93a3ba92f8d6d548a1e28d2917fb1fdce77624590d7416c7260f64736f6c63430005100032",
  "source": "//SPDX-License-Identifier: MIT\npragma solidity >= 0.5.0 < 0.7.0;\n\n\n\ncontract ValidationContract {\n    \n    address owner;\n    bytes32 aktDID;\n\n  struct Device {\n    uint physicalId;\n    }\n\n  constructor() public {\n    owner = msg.sender;\n  }\n  \n      modifier onlyOwner() {\n        require(msg.sender == owner, \"Sender does not equal contract owner.\");\n        _;\n    }\n    \n        function setAktDID(bytes32 _aktDID) public onlyOwner {\n\n        if (aktDID == bytes32(0)) {\n            aktDID = _aktDID;\n        } else {\n            revert(\"Validation contract address can only be set initially.\");\n        }\n        }\n    \n      mapping(uint => Device) public devices;\n\n      function setPhysicalId(uint _physicalId) public onlyOwner {\n        Device storage device = devices[_physicalId];\n        \n        require(devices[_physicalId].physicalId != _physicalId, \"This phyisicalId has already been entered for registering\");\n\n        device.physicalId = _physicalId;\n\n      }\n      \n      function isAllowed(uint _physicalId, bytes32 _aktDID) public view returns(bool) {\n        require(devices[_physicalId].physicalId == _physicalId, \"This phyisicalId has not been entered for registering\");\n        require(aktDID == _aktDID, \"This Activation Device is not allowed to register IDs\");\n        \n        return true;\n\n      }\n\n\n}",
  "sourcePath": "/Users/julian/Desktop/GitProjects/did-registry/contracts/ValidationContract.sol",
  "compiler": {
    "name": "solc",
    "version": "0.5.16+commit.9c3226ce.Emscripten.clang"
  },
  "schemaVersion": "3.2.0",
  "updatedAt": "2020-07-23T14:35:13.264Z",
  "networkType": "ethereum",
  "devdoc": {
    "methods": {}
  },
  "userdoc": {
    "methods": {}
  }
}