{
  "contractName": "ValidationContract",
  "abi": [
    {
      "inputs": [],
      "payable": false,
      "stateMutability": "nonpayable",
      "type": "constructor"
    },
    {
      "constant": true,
      "inputs": [
        {
          "internalType": "uint256",
          "name": "",
          "type": "uint256"
        }
      ],
      "name": "physicalIDs",
      "outputs": [
        {
          "internalType": "uint256",
          "name": "",
          "type": "uint256"
        }
      ],
      "payable": false,
      "stateMutability": "view",
      "type": "function"
    },
    {
      "constant": false,
      "inputs": [
        {
          "internalType": "bytes32",
          "name": "_aktDID",
          "type": "bytes32"
        }
      ],
      "name": "setAktDID",
      "outputs": [],
      "payable": false,
      "stateMutability": "nonpayable",
      "type": "function"
    },
    {
      "constant": false,
      "inputs": [
        {
          "internalType": "uint256",
          "name": "_physicalID",
          "type": "uint256"
        }
      ],
      "name": "setPhysicalID",
      "outputs": [],
      "payable": false,
      "stateMutability": "nonpayable",
      "type": "function"
    },
    {
      "constant": true,
      "inputs": [
        {
          "internalType": "uint256",
          "name": "_physicalID",
          "type": "uint256"
        }
      ],
      "name": "isEnabled",
      "outputs": [
        {
          "internalType": "bool",
          "name": "",
          "type": "bool"
        }
      ],
      "payable": false,
      "stateMutability": "view",
      "type": "function"
    },
    {
      "constant": true,
      "inputs": [],
      "name": "aktDIDisSet",
      "outputs": [
        {
          "internalType": "bool",
          "name": "",
          "type": "bool"
        }
      ],
      "payable": false,
      "stateMutability": "view",
      "type": "function"
    },
    {
      "constant": true,
      "inputs": [
        {
          "internalType": "uint256",
          "name": "_physicalID",
          "type": "uint256"
        },
        {
          "internalType": "bytes32",
          "name": "_aktDID",
          "type": "bytes32"
        }
      ],
      "name": "isAllowed",
      "outputs": [
        {
          "internalType": "bool",
          "name": "",
          "type": "bool"
        }
      ],
      "payable": false,
      "stateMutability": "view",
      "type": "function"
    }
  ],
  "bytecode": "0x608060405234801561001057600080fd5b50336000806101000a81548173ffffffffffffffffffffffffffffffffffffffff021916908373ffffffffffffffffffffffffffffffffffffffff160217905550610739806100606000396000f3fe608060405234801561001057600080fd5b50600436106100625760003560e01c80630f589f48146100675780632988ae5f146100a9578063355d3e36146100d75780635549eda114610127578063c783034c14610149578063dd07e4a31461018f575b600080fd5b6100936004803603602081101561007d57600080fd5b81019080803590602001909291905050506101bd565b6040518082815260200191505060405180910390f35b6100d5600480360360208110156100bf57600080fd5b81019080803590602001909291905050506101d5565b005b61010d600480360360408110156100ed57600080fd5b8101908080359060200190929190803590602001909291905050506102e7565b604051808215151515815260200191505060405180910390f35b61012f6103b9565b604051808215151515815260200191505060405180910390f35b6101756004803603602081101561015f57600080fd5b810190808035906020019092919050505061043d565b604051808215151515815260200191505060405180910390f35b6101bb600480360360208110156101a557600080fd5b81019080803590602001909291905050506104d0565b005b60026020528060005260406000206000915090505481565b6000809054906101000a900473ffffffffffffffffffffffffffffffffffffffff1673ffffffffffffffffffffffffffffffffffffffff163373ffffffffffffffffffffffffffffffffffffffff161461027a576040517f08c379a00000000000000000000000000000000000000000000000000000000081526004018080602001828103825260258152602001806106e06025913960400191505060405180910390fd5b6000801b600154141561029357806001819055506102e4565b6040517f08c379a00000000000000000000000000000000000000000000000000000000081526004018080602001828103825260368152602001806106aa6036913960400191505060405180910390fd5b50565b60008060026000858152602001908152602001600020541415610355576040517f08c379a000000000000000000000000000000000000000000000000000000000815260040180806020018281038252603f815260200180610632603f913960400191505060405180910390fd5b81600154146103af576040517f08c379a00000000000000000000000000000000000000000000000000000000081526004018080602001828103825260358152602001806105fd6035913960400191505060405180910390fd5b6001905092915050565b60008060001b6001541415610436576040517f08c379a00000000000000000000000000000000000000000000000000000000081526004018080602001828103825260108152602001807f4e6f20416b74444944206973207365740000000000000000000000000000000081525060200191505060405180910390fd5b6001905090565b6000816002600084815260200190815260200160002054146104c7576040517f08c379a000000000000000000000000000000000000000000000000000000000815260040180806020018281038252601f8152602001807f546869732070687969736963616c4964206973206e6f7420656e61626c65640081525060200191505060405180910390fd5b60019050919050565b6000809054906101000a900473ffffffffffffffffffffffffffffffffffffffff1673ffffffffffffffffffffffffffffffffffffffff163373ffffffffffffffffffffffffffffffffffffffff1614610575576040517f08c379a00000000000000000000000000000000000000000000000000000000081526004018080602001828103825260258152602001806106e06025913960400191505060405180910390fd5b60006002600083815260200190815260200160002054146105e1576040517f08c379a00000000000000000000000000000000000000000000000000000000081526004018080602001828103825260398152602001806106716039913960400191505060405180910390fd5b8060026000838152602001908152602001600020819055505056fe546869732041637469766174696f6e20446576696365206973206e6f7420616c6c6f77656420746f20726567697374657220494473656e7472792073657420546869732070687969736963616c496420686173206e6f74206265656e20656e746572656420666f72207265676973746572696e67546869732070687969736963616c49642068617320616c7265616479206265656e20656e746572656420666f72207265676973746572696e6756616c69646174696f6e20636f6e747261637420616464726573732063616e206f6e6c792062652073657420696e697469616c6c792e53656e64657220646f6573206e6f7420657175616c20636f6e7472616374206f776e65722ea265627a7a7231582035392fab8aece2c7c62b5230ef4249d8dbeb633b802e51a4b3583035f475591364736f6c63430005100032",
  "source": "//SPDX-License-Identifier: MIT\npragma solidity >=0.5.0 <0.7.0;\n\ncontract ValidationContract {\n    address owner;\n    bytes32 aktDID;\n\n    constructor() public {\n        owner = msg.sender;\n    }\n\n    modifier onlyOwner() {\n        require(msg.sender == owner, \"Sender does not equal contract owner.\");\n        _;\n    }\n\n    function setAktDID(bytes32 _aktDID) public onlyOwner {\n        if (aktDID == bytes32(0)) {\n            aktDID = _aktDID;\n        } else {\n            revert(\"Validation contract address can only be set initially.\");\n        }\n    }\n\n    mapping(uint256 => uint256) public physicalIDs;\n\n    function setPhysicalID(uint256 _physicalID) public onlyOwner{\n        require(\n            physicalIDs[_physicalID] == 0,\n            \"This phyisicalId has already been entered for registering\"\n        );\n\n        physicalIDs[_physicalID] = _physicalID;\n    }\n\n    function isEnabled(uint256 _physicalID) public view returns (bool){\n        require(physicalIDs[_physicalID] == _physicalID, \"This phyisicalId is not enabled\");\n        return true; \n    }\n\n    function aktDIDisSet() public view returns (bool){\n        require(aktDID != 0, \"No AktDID is set\");\n\n        return true;\n\n    }\n\n    function isAllowed(uint256 _physicalID, bytes32 _aktDID)\n        public\n        view\n        returns (bool)\n    {\n        require(physicalIDs[_physicalID] != 0, \"entry set This phyisicalId has not been entered for registering\"\n        );\n        require(\n            aktDID == _aktDID,\n            \"This Activation Device is not allowed to register IDs\"\n        );\n\n        return true;\n    }\n}\n",
  "sourcePath": "/Users/julian/Desktop/GitProjects/did-registry/contracts/ValidationContract.sol",
  "compiler": {
    "name": "solc",
    "version": "0.5.16+commit.9c3226ce.Emscripten.clang"
  },
  "schemaVersion": "3.2.0",
  "updatedAt": "2020-07-24T13:45:56.789Z",
  "networkType": "ethereum",
  "devdoc": {
    "methods": {}
  },
  "userdoc": {
    "methods": {}
  }
}