{
  "contractName": "ValidationContract",
  "abi": [
    {
      "constant": true,
      "inputs": [
        {
          "name": "",
          "type": "uint256"
        }
      ],
      "name": "pids",
      "outputs": [
        {
          "name": "",
          "type": "uint256"
        }
      ],
      "payable": false,
      "stateMutability": "view",
      "type": "function"
    },
    {
      "inputs": [],
      "payable": false,
      "stateMutability": "nonpayable",
      "type": "constructor"
    },
    {
      "constant": false,
      "inputs": [
        {
          "name": "_aktDID",
          "type": "bytes32"
        },
        {
          "name": "_physicalID",
          "type": "uint256"
        }
      ],
      "name": "setPhysicalID",
      "outputs": [],
      "payable": false,
      "stateMutability": "nonpayable",
      "type": "function"
    },
    {
      "constant": true,
      "inputs": [
        {
          "name": "_aktDID",
          "type": "bytes32"
        },
        {
          "name": "_physicalID",
          "type": "uint256"
        }
      ],
      "name": "isAllowed",
      "outputs": [
        {
          "name": "",
          "type": "bool"
        }
      ],
      "payable": false,
      "stateMutability": "view",
      "type": "function"
    }
  ],
  "bytecode": "0x608060405234801561001057600080fd5b50336000806101000a81548173ffffffffffffffffffffffffffffffffffffffff021916908373ffffffffffffffffffffffffffffffffffffffff16021790555061052c806100606000396000f300608060405260043610610057576000357c0100000000000000000000000000000000000000000000000000000000900463ffffffff168063384677001461005c57806365d934471461009757806393503337146100d8575b600080fd5b34801561006857600080fd5b5061009560048036038101908080356000191690602001909291908035906020019092919050505061012b565b005b3480156100a357600080fd5b506100c260048036038101908080359060200190929190505050610401565b6040518082815260200191505060405180910390f35b3480156100e457600080fd5b50610111600480360381019080803560001916906020019092919080359060200190929190505050610419565b604051808215151515815260200191505060405180910390f35b6000809054906101000a900473ffffffffffffffffffffffffffffffffffffffff1673ffffffffffffffffffffffffffffffffffffffff163373ffffffffffffffffffffffffffffffffffffffff16141515610215576040517f08c379a00000000000000000000000000000000000000000000000000000000081526004018080602001828103825260258152602001807f53656e64657220646f6573206e6f7420657175616c20636f6e7472616374206f81526020017f776e65722e00000000000000000000000000000000000000000000000000000081525060400191505060405180910390fd5b600060026000838152602001908152602001600020541415156102c6576040517f08c379a00000000000000000000000000000000000000000000000000000000081526004018080602001828103825260228152602001807f54686973205049442068617320616c7265616479206265656e20656e61626c6581526020017f642100000000000000000000000000000000000000000000000000000000000081525060400191505060405180910390fd5b60001515600160008460001916600019168152602001908152602001600020600083815260200190815260200160002060009054906101000a900460ff1615151415156103a1576040517f08c379a00000000000000000000000000000000000000000000000000000000081526004018080602001828103825260398152602001807f546869732070687969736963616c49642068617320616c72656164792062656581526020017f6e20656e746572656420666f72207265676973746572696e670000000000000081525060400191505060405180910390fd5b60018060008460001916600019168152602001908152602001600020600083815260200190815260200160002060006101000a81548160ff0219169083151502179055508060026000838152602001908152602001600020819055505050565b60026020528060005260406000206000915090505481565b600060011515600160008560001916600019168152602001908152602001600020600084815260200190815260200160002060009054906101000a900460ff1615151415156104f6576040517f08c379a00000000000000000000000000000000000000000000000000000000081526004018080602001828103825260358152602001807f546869732070687969736963616c496420686173206e6f74206265656e20656e81526020017f746572656420666f72207265676973746572696e67000000000000000000000081525060400191505060405180910390fd5b60019050929150505600a165627a7a723058202073404cc67d1b17818f1e6b6b45a89efd5b10ae15a321d2be119f0c62d614290029",
  "source": "//SPDX-License-Identifier: MIT\npragma solidity >=0.4.22 < 0.7.0;\n\ncontract ValidationContract {\n    address owner;\n\n    constructor() public {\n        owner = msg.sender;\n    }\n\n    modifier onlyOwner() {\n        require(msg.sender == owner, \"Sender does not equal contract owner.\");\n        _;\n    }\n    \n    mapping(bytes32 => mapping (uint256 => bool)) internal enabled;\n    mapping(uint256 => uint256) public pids;\n\n    function setPhysicalID(bytes32 _aktDID, uint256 _physicalID) public onlyOwner{\n        \n        require(pids[_physicalID] == 0, \"This PID has already been enabled!\");\n        \n        require(\n            enabled[_aktDID][_physicalID] == false ,\n            \"This phyisicalId has already been entered for registering\"\n        );\n        \n        enabled[_aktDID][_physicalID] = true; \n        pids[_physicalID] = _physicalID;\n        \n    }\n    \n    function isAllowed(bytes32 _aktDID, uint256 _physicalID) public view returns (bool)\n    {\n        require(enabled[_aktDID][_physicalID] == true , \"This phyisicalId has not been entered for registering\");\n\n        return true;\n    }\n\n\n}\n",
  "sourcePath": "/Users/julian/Desktop/GitProjects/did-registry/contracts/ValidationContract.sol",
  "compiler": {
    "name": "solc",
    "version": "0.4.22+commit.4cb486ee.Emscripten.clang"
  },
  "schemaVersion": "3.2.3",
  "updatedAt": "2020-07-31T16:19:24.347Z",
  "networkType": "ethereum",
  "devdoc": {
    "methods": {}
  },
  "userdoc": {
    "methods": {}
  }
}